:020000040800F2
:10000000300A002025030008E5550008C14A000811
:1000100045550008671D0008FD6500080000000048
:10002000000000000000000000000000C3590008AC
:10003000231E000800000000E75500083D5A000894
:100040003F0300083F0300083F0300083F03000888
:100050003F0300083F0300083F0300083F03000878
:100060003F0300083F0300083F030008691D000824
:10007000751D00083F0300083F0300083F03000808
:100080003F030008000000003F0300083F03000892
:100090003F0300083F0300083F0300083F03000838
:1000A0003F0300083F030008B95A00083F03000857
:1000B000C55A0008D15A00083F0300083F03000852
:1000C0003F0300083F0300083F0300083F03000808
:1000D0003F030008F16500083F0300083F030008E4
:1000E0003F0300083F0300083F0300083F030008E8
:1000F0003F0300083F0300083F0300080000000022
:10010000000000003F030008000000003F0300085B
:100110003F030008000000003F030008DD5A00080C
:100120003F0300083F0300083F0300083F030008A7
:100130003F03000800000000000000003F0300082B
:100140003F0300083F03000800000000000000001B
:10015000000000000000000000000000000000009F
:100160000000000000000000000000003F03000845
:100170003F03000800000000000000000000000035
:10018000000000003F030008000000000000000025
:10019000000000000000000000000000000000005F
:1001A00000000000000000003F0300083F030008BB
:1001B0003F0300083F0300083F0300080000000061
:1001C000000000003F0300080000000000000000E5
:1001D0003F0300083F03000800F002F800F092F827
:1001E0000AA090E8000C82448344AAF10107DA4592
:1001F00001D100F087F8AFF2090EBAE80F0013F052
:10020000010F18BFFB1A43F001031847A078000044
:10021000C0780000103A24BF78C878C1FAD85207D5
:1002200024BF30C830C144BF04680C607047000070
:100230000023002400250026103A28BF78C1FBD8EF
:10024000520728BF30C148BF0B6070476E2900F0CD
:10025000F581702900F03F83662906F09C826529AC
:1002600006F09982672906F09682612906F0958248
:1002700003681B0A28BF41F08001692900F0A281B0
:10028000642900F09F81752900F09C816F2900F09E
:10029000CC82782900F00B83E92900F06782E429F9
:1002A00000F06482F52900F06182EF2900F0C98234
:1002B000F82900F00A830368DB0928BF41F08001B8
:1002C000632901F00D80732901F01280E32901F008
:1002D0001D80F32901F02280002070471FB506F031
:1002E00055FA01F06DF804000020002106F038FAFC
:1002F000401C60600020002106F01CFAE0601FBD79
:1003000010B510BD01F02EF81146FFF7E7FF06F01B
:10031000CBF901F00BF903B4FFF7F2FF03BC01F0D6
:1003200053F900000948804709480047FEE7FEE707
:10033000FEE7FEE7FEE7FEE7FEE7FEE7FEE7FEE795
:1003400004480549054A064B70470000A95A0008B1
:10035000D901000830040020300A002030060020B7
:100360003006002053EA020C00F069802DE9F04BC2
:100370004FF00006002B1FBFB3FA83F503FA05F414
:1003800024FA05F65E4012BF1643B2FA82F502FA6D
:1003900005F4C5F120051EBF22FA05FC44EA0C0451
:1003A000203556EA044C4FEA144418BF641C4FF041
:1003B00000084FF00009904271EB030C39D300297B
:1003C00019BFB1FA81F701FA07F6B0FA80F700FA1F
:1003D00007F6C7F120071EBF20FA07FC46EA0C0605
:1003E0002037B6FBF4FCA7EB0507103F07F01F0B07
:1003F000CBF120060CFA0BFB2CFA06F644BFB346F1
:100400000026202FA4BF5E464FF0000B5BEA060CCF
:1004100008BF4FF0010B19EB0B09ABFB027C48EB5B
:100420000608C01B06FB02CC0BFB03CC71EB0C01D6
:10043000C1E70B46024641464846BDE8F08B13B57E
:100440004FF000004FF00001AFF30080BDE81C400A
:10045000704700001CB50C46064B7B446946009073
:10046000204600F004F904460020694600F012F925
:1004700020461CBD370200007CB51D4616460C0008
:10048000009001D02044401E074B7B442A46694619
:100490000190304600F0EBF805461CB1002069469B
:1004A00000F0F8F828467CBD110200004FF0000271
:1004B00000B5134694469646203922BFA0E80C505A
:1004C000A0E80C50B1F12001BFF4F7AF090728BF35
:1004D000A0E80C5048BF0CC05DF804EB890028BFB1
:1004E00040F8042B08BF704748BF20F8022B11F0DA
:1004F000804F18BF00F8012B704770477047704756
:1005000070B5044685690068C10601D5302600E053
:100510002026C00707D070BDD4E90121304690479E
:10052000206A401C20626D1EF6D570BD70B5044671
:1005300085690078C00707D170BDD4E9012120206A
:100540009047206A401C20626D1EF6D570BD096878
:100550004A0501D540B27047C905FCD500B27047C5
:1005600009684A0501D5C0B27047C905FCD580B2FB
:10057000704770B50C460546012A05D028788006DC
:1005800000D5EA69002302E0012305E05B1C9342E9
:1005900002D2E05C0028F9D1A869E618C01AA86167
:1005A000286A184428622846FFF7AAFF04E0D5E924
:1005B000012114F8010B9047B442F8D32846FFF705
:1005C000B5FF70BD2DE9F04106460024106875297D
:1005D000314616A510D0FFF7BAFF002802DA4042D4
:1005E00013A507E031688A0701D512A502E0490783
:1005F00004D511A5012401E0FFF7B2FF00210A2272
:1006000006F1240709E0B0FBF2FCB0FBF2F302FBB9
:100610001C00303078541846491C0028F3D123467A
:100620002A463046BDE8F04100F069BA00000000FB
:100630002D0000002B00000020000000116802685F
:10064000006A530501D508700AE0D30501D508807A
:1006500006E0130603D5C217C1E9000200E00860F6
:100660000120704701694A1C02610878704700B593
:100670008FB0CDE901310021059105497944CDE9DB
:1006800003101146684600F031F90FB000BD0000BC
:10069000E5FFFFFF0A6802F8010B0A607047D1E925
:1006A00000239A4202D2531C0B6010707047000066
:1006B0002DE9FF5F15468A460446DFF8AC80F84412
:1006C0000027D8E900103E46CDE9001010E03AF8C6
:1006D00016106A4602A800F025FE411C07D02178BA
:1006E000890603D5E269391891420DD80744761C72
:1006F0002078800602D5E069B84205DDAE42E6DB2F
:100700003AF816000028E2D1A069C01BA06120467B
:10071000FFF7F6FED8E90010CDE90010002017E041
:100720003AF818106A4602A800F0FCFDB0F1FF3F4D
:1007300081460BD000250DF1080B05E0D4E901211D
:100740001BF8050090476D1C4D45F7D308F10100DB
:10075000B0428046E4DB206A384420622046FFF73E
:10076000E5FEBDE8FF9F0000EE7200002DE9F041BC
:100770008046D21D22F007020025D2E90002F529A9
:1007800015A614D0011E72F1000106DA0023D0EB89
:10079000030063EB020211A608E0D8F800108B07F3
:1007A00001D50FA602E0490701D50EA60125114685
:1007B000002408F1240704E000F05CF930323A55D7
:1007C000641C50EA0102F7D12B46324621464046CE
:1007D000BDE8F04100F093B9000000002D000000DA
:1007E0002B0000002000000030B4002100F12404A0
:1007F00008E002F00705D208303542EA4372DB0810
:100800006554491C52EA0305F3D10468002310A281
:10081000250707D5A40600D421B1C46901230DA280
:10082000641EC46130BC00F06AB910B504462146AC
:100830001068FFF795FE02462046BDE810400023F1
:10084000D2E7D21D22F00701D1E90023CCE7000056
:100850000000000030000000F0B40D4601880905DA
:1008600002D5214C7C4402E01F4C7C440E34002114
:1008700000F1240608E002F00F071209E75D42EAE2
:1008800003721B097754491C52EA0307F3D102781B
:100890000023120704D5702D06D009B102231134AC
:1008A0002246F0BC00F02BB901231034F8E770B5F4
:1008B00004460D4621461068FFF752FE02462946BF
:1008C0002046BDE870400023C6E7D21D22F0070392
:1008D000D3E90023C0E70368126843F020030360F4
:1008E0000823C3610023B7E7507100002DE9F05FD2
:1008F000894604464FF0000ADFF874B1FB44C0F8A3
:1009000020A02046E1688847002874D0252806D01A
:10091000D4E901219047206A401C2062F1E70026BB
:100920005F462046E16888472028054607DB312DD1
:1009300005D2781910F8200C08B10643F1E7B0078A
:1009400001D526F00406C4F81CA00027C4F818A09E
:100950002A2D09D0284605F08FFE38B304EB87080E
:10096000303DC8F8185019E059F8041B204604EB34
:1009700087029161E1688847012F054618D1E06937
:10098000002820DA26F020061DE0D8F8180000EB39
:10099000800005EB40003038C8F818002046E168B8
:1009A0008847054605F068FE0028EED1012F0AD0E1
:1009B0002E2D08D12046E16888477F1C0546022F6E
:1009C00046F02006C4DBA069002803DA404246F066
:1009D0000106A061F00701D026F010066C2D0BD0A7
:1009E000682D09D04C2D39D06A2D35D0742D35D0D5
:1009F0007A2D33D016E038E0E1682F46204688474C
:100A0000B842054609D16C2F26D04FF48060E168CA
:100A1000064320468847054604E06C2F1AD04FF461
:100A2000807006430DB3A5F14100192802D8203586
:100A300046F400664A462946204626604E46FFF7A1
:100A400005FC80B101280BD0F61D26F0070000F14F
:100A5000080956E74020E4E78020D8E70020D6E7E1
:100A600006F104094DE7284652E7206ABDE8F09FE9
:100A7000E070000030B5B0F10A024FEA900E71F15B
:100A800000034EEA817EB0EB0E0061EB91014FEA6C
:100A9000101E4EEA017E10EB0E0041EB11114FEAE1
:100AA000102E4EEA016E10EB0E0041EB11214FEAC1
:100AB000104E4EEA014E10EB0E0041EB1141401872
:100AC00041F100014FEAD00040EA41704FEAD10104
:100AD00010EB80054FEA810444EA907444EB010472
:100AE0006D1944EB0404521BA3414FF0000348BFAF
:100AF0000A3200D530BD401C41F1000130BD2DE966
:100B0000F0470D4699469246044600F124080168D4
:100B1000880604D5E06921F01001216000E0012081
:100B2000A84201DD471B00E00027A1697A1902EB0A
:100B30000900081AA0612078C00602D42046FFF7F9
:100B4000DFFC002608E0D4E901211AF806009047EE
:100B5000206A401C761C20624E45F4DB2078C006DB
:100B60000AD52046FFF7CCFC06E0D4E9012130206D
:100B70009047206A401C2062381EA7F10107F4DC70
:100B800007E0D4E9012118F805009047206A401CCD
:100B90002062281EA5F10105F3DC2046FFF7C6FC04
:100BA0002078000602D50220BDE8F0870120FBE78F
:100BB00070472DE9FF4F0C461E464FF0FF378BB0B4
:100BC000D2E90001DDF860800A908A46C1F30A5537
:100BD00005B93D46002108464FF00000BAF1000F6C
:100BE00000F4400005DA00EB80004FF4400101EA18
:100BF00050004FEA9059B9F1010F00DDB9460A984B
:100C000050EA4A000ED044F61050A5F2FF35454395
:100C10002F14B8F1000F1ED07542291E1EDDC9F138
:100C200000021CE0B8F1010F4FF0000001D03021AC
:100C300003E0F24305E02154401CB042FBDB3046A8
:100C40000022002121540B99C1F80880C1E900203D
:100C50000FB0BDE8F08FBD1B6D1CDEE74A4600DA21
:100C6000694206A800F0F0FB06AB93E8070003AB6F
:100C700083E8070050460A9900F0ADFC8DE80700B4
:100C8000A0F500501F3800900398002D0ADD42F2B5
:100C90001F014A460844002303A90390684600F058
:100CA00016FF09E0A0F500504A461F38002303A9AB
:100CB0000390684600F020FF8DE807000004000C58
:100CC00003D04FF0FF30410800E01046B8F1000FAC
:100CD00003D00022009215461EE0751E05D4FFF7D2
:100CE000C9FE303262556D1EF9D5B3460122084364
:100CF00002D000227F1C04E02078302801D100229D
:100D00007F1E002A099784D01DE0112D07DAFFF716
:100D1000B1FE303262556D1C50EA0102F5D1084334
:100D200002D00098C8B10EE00021681E05E0235CE7
:100D3000625C63542254401E491C8142F7DBAB467F
:100D4000A81B401E0990002004F80B000B98099A7C
:100D5000C0F80880C0E9002B7AE711264FF00008A0
:100D600057E72DE9F04F88460446D21D22F00701CF
:100D700091B0D1E90001CDE90A0105F055FC024628
:100D80000B98C00F01D02D2007E02068810701D506
:100D90002B2002E0202101EAC000032A099001D0A3
:100DA000072A05DB03464146204600F00DFB0BE118
:100DB0002078800601D5E06900E00620B8F1650FD3
:100DC000814606D0B8F1660F18D0B8F1670F70D120
:100DD00031E00020B9F1110F009001DB112301E097
:100DE00009F101030AAA01A90CA8FFF7E2FEDDE957
:100DF0000C70002609F10105834647E001204B46AF
:100E000000904FF000470AAA01A90CA8FFF7D1FEF5
:100E1000DDE90DB00C995D46002610B909F101001D
:100E20000D18B9EB050003D4C0F1FF3609F1010537
:100E3000A5EB09002BE0B9F1010F01DA4FF0010930
:100E40000020B9F1110F0090484601DD112300E0A8
:100E500003460AAA01A90CA8FFF7ABFEDDE90C7056
:100E60004D4600268346207800070AD4AB4500DAB9
:100E70005D4601A8012D04DD411911F8011C30293E
:100E800007D04F4502DA17F1040F04DA0120824639
:100E90000FE06D1EEEE7002F02DCED1B3E4403E089
:100EA000781CA84200DD7D1CB81B00F1010A4FF040
:100EB00000472078000703D4AA4501DB4FF0FF3A32
:100EC0000021B7F1004F0DF143088DF8431024D0F5
:100ED00002202B23002F01DA7F422D230A21021E3C
:100EE000A0F1010000DC5FB197FBF1FC97FBF1F290
:100EF00001FB1C7C17460CF1300C08F801CDEEE725
:100F0000A8F1010003702188090501D5452100E001
:100F10006521A0F1010800F8011C09980FA9A1EBB7
:100F20000807FF1D00B10120411901EBEA70A1691A
:100F30003844081A401EA0612078C00602D420461A
:100F4000FFF7DEFA099828B1D4E901219047206A19
:100F5000401C20622078C00622D52046FFF7D0FA38
:100F60001EE0002E04DBB34502DD01A8805D00E039
:100F70003020D4E901219047206A401C2062761C71
:100F8000AAF101005FEA000A0AD100F019FAC0686C
:100F90000168405CD4E901219047206A401C20622E
:100FA000281EA5F10105DCDC07E0D4E9012118F8D1
:100FB000010B9047206A401C2062381EA7F10107F0
:100FC000F3DC2046FFF7B2FA032011B041E600003F
:100FD0002DE9F04F04460D46D21D22F0070089B0DE
:100FE000D0E900974846394605F01EFB0246F80F47
:100FF00001D02D2307E02068810701D52B2302E0D3
:10100000202101EAC0038DF820300BB1012000E05F
:101010000020032A824601D0072A04DB2946204605
:1010200000F0D2F93FE12078800601D40D2500E0E0
:10103000E569C7F30A560D2D49DA00214FEA175B1F
:1010400008464FF00000002F00F4400007DA00EBE4
:1010500080004FF4400100EBD07001EA6000811580
:10106000012901DD4FF0FF3100224FEA850CBCF170
:10107000180F06D31346ACF118004FF08052C2404F
:1010800003E04FF4801323FA0CF30CF10C0CBCF1C9
:10109000200F04D3ACF1200C09FA0CF001E007FAA0
:1010A0000CF000294FF0004801DD18B90FE00ED117
:1010B00040450CD319EB02095F4121B9404502D1EB
:1010C0009F4329EA0209BBEB175F00D0761C2088FA
:1010D000000502D57B48784402E07A487844193804
:1010E00008AA302302F80A30037C0AF10101002E1D
:1010F0000AF1020A53546A4602DC4FF0300101E063
:101100004FF031014FF001088DF8001002D0A6F227
:10111000FF3603E059EA470100D06B4E002D02DC98
:101120002178090704D54FF002082E218DF801100F
:10113000C44600210BE0C7F303433F01C35C491CD5
:101140006D1E02F80830052908F1010801DA002DAA
:10115000F1DC00210CE000EB1973491C1B786D1EBB
:10116000082902F808304FEA091908F1010801DAE4
:10117000002DF0DC21688B0602D516E0A8F10108ED
:10118000E04505DD02EB080313F8013C302BF5D0F8
:10119000B8F1000F09DD02EB080313F8013C2E2B18
:1011A00003D1090701D4A8F10108002D05DD3E2176
:1011B00002F808106D1E08F10108407C002E02F8AC
:1011C000080008F1010804DA2D20764202F8080030
:1011D00002E02B2002F808000A214FF47A708642C0
:1011E00008F101080BDB96FBF0F3303302F808300E
:1011F00096FBF0F308F1010800FB136601E0642E92
:101200000CDB642096FBF0F3303302F8083096FBD9
:10121000F0F308F1010800FB136601E00A2E06DB7B
:1012200096FBF1F0303002F8080008F1010896FB57
:10123000F1F001FB1060303002F80800A16908F1FC
:10124000010808EB050202EB0A00081AA0612078E9
:10125000C00602D42046FFF753F9216A08AE01EB1D
:101260000A00206204E0D4E9012116F8010B90473E
:10127000BAF1010AF7D22078C00602D52046FFF75E
:101280003FF96E4609E016F8010B3E280FD0D4E96D
:1012900001219047206A401C2062B8F10108F2D277
:1012A0002046FFF743F909B00320BDE8F08F206A1C
:1012B0002844206203E0D4E90121302090476D1ECC
:1012C000EBD3F8E72A69000002FCFFFF10B5436981
:1012D00013B1AFF3008001E0FFF74BF9012010BD1F
:1012E000127800F124010A7000224A700122EDE711
:1012F00011684FF0FF32E9E710B5436913B1AFF35E
:10130000008001E0FFF7D4F9012010BD128800F140
:10131000240182840022C2840122EDE711684FF08B
:10132000FF32E9E770B516460C46054600F040F876
:10133000036893F80101012806D0FF2C0FD8185D2F
:1013400068B101202C7070BDD3F8070132462146E8
:1013500003F2071303442846BDE8704018474FF0D6
:10136000FF3070BD754600F0EBF8AE4605006946EB
:10137000534620F00700854618B020B5FEF7E0FF81
:10138000BDE820404FF000064FF000074FF0000886
:101390004FF0000B21F00701AC46ACE8C009ACE807
:1013A000C009ACE8C009ACE8C0098D467047000030
:1013B00010B500F005F8001D10BD00BFA5530000DA
:1013C00000487047EC0300202DE9F0411F46044619
:1013D00003260168072A01F4006004DB08B116A5A2
:1013E00005E016A503E008B115A500E015A521F05C
:1013F00010002060A069C01EA0610FB1401EA06156
:101400002046FFF77DF84FB1D4E9012138469047D7
:10141000206A401C2062C01C206206E0206AFAE7B5
:10142000D4E9012115F8010B9047761EF8D2204629
:10143000FFF77CF8BDE8F0814E414E006E616E0012
:10144000494E4600696E66002DE9F0478146164612
:101450008AB0354878440DC88DE80D00324878448C
:10146000801C03AC0DC884E80D0041F69B30084495
:10147000372190FBF1F290FBF1F5A5F1800501FB1E
:1014800012041B3C02D56442012000E00020DFF87A
:1014900098A080460027FA44AAF1BE0A0EE0E007B1
:1014A0000AD03246684607EB470101230AEB810167
:1014B00000F022FB8DE8070064107F1C002CEED1A9
:1014C000194F7F44AE3F19E0E80715D007EB041031
:1014D0000DF1180A90E80E008AE80E00C068F0428C
:1014E00001D1981908903246012306A903A800F0FB
:1014F00003FB03AB83E807006D10641C002DE3D1F0
:101500004FF0010332466946B8F1000F03A802D03C
:1015100000F0DDFA01E000F0EFFAC9E90001C9F8D6
:1015200008200AB0BDE8F0873C66000010B504460C
:10153000AFF300802046BDE81040FEF7ECBE00008F
:1015400000487047CC0300204FF0013C50F8042BBA
:1015500051F8043B9A4221D1A2EB0C03934313EAC6
:10156000CC1317D150F8042B51F8043B9A4215D1F3
:10157000A2EB0C03934313EACC130BD150F8042BCA
:1015800051F8043B9A4209D1A2EB0C03934313EAAE
:10159000CC13DBD04FF00000704700BFD01A01BA67
:1015A000B1FA81F101F0180122FA01F0CB40C1F14A
:1015B0002001DBB2C0B2C01A2CFA01F3D11A914358
:1015C00011EAC311E6D1704701491820ABBEFEE70E
:1015D0002600020070475FEA400C08BF91F0000F40
:1015E0004FEA8C234FEAC12243EA51514FEA1C5083
:1015F00018BF00F5F0404FEA300018BF41F000413D
:101600005FEA6C5C00F02980BCF1FF3F08BF40F04E
:1016100080407047130C06BF12044FF0100C4FF0BF
:10162000000C130E04BF12020CF1080C130F04BFC0
:1016300012010CF1040C930F04BF92000CF1020C88
:10164000D30F04BF52000CF1010C11464FF0000201
:10165000A0F11F00A0EB0C00704711F0004F08BF75
:10166000704731F000413FF4D5AF0B0C06BF0904C1
:101670004FF0100C4FF0000C0B0E04BF09020CF1E0
:10168000080C0B0F04BF09010CF1040C8B0F04BFF5
:1016900089000CF1020CCB0F04BF49000CF1010CC6
:1016A000CCF12003A0EB0C0022FA03F302FA0CF2B7
:1016B00041EA030100F10100704720F07F4C80EA0D
:1016C000030023F07F47ACEB070303F57C5300F0E6
:1016D000004003F1FF032DE980494FEA154B09B49F
:1016E0004FEA144325EA0B4E24EA03480FF204267E
:1016F00006EB132749083E785FEA320203FB0667D0
:10170000C7F5000707FB06F64FEA54374FEAD646FF
:1017100006F1020607FB066CCCF1005C4FEA1C47A1
:101720002CEA074C07FB06F40CFB06F504EB154608
:101730004FEA961634BF00204FF000404FEAD137F1
:1017400006FB07FC4FEA1C4C0CFB0BF7D21B03FB00
:101750000CF761EB07010CFB0EF7B0EB074072EBE7
:1017600017420CFB08F734BFA2EB0742B2EB07426B
:1017700061EB17414FEA0C444FEA910706FB07FC67
:101780004FEA1C4C0CFB0BF7B0EBC74072EB573227
:1017900003FB0CF734BFA2EBC742B2EBC74261EBCD
:1017A00057310CFB0EF7B0EBC70072EB57720CFB16
:1017B00008F734BFA2EBC702B2EBC70261EB577167
:1017C000039F4FEA816141EA921104EBCC044FEA96
:1017D000D1374FEA826206FB07FC42EA90124FEAD9
:1017E00080604FEA1C4C0CFB0BF7D21B03FB0CF781
:1017F00061EB07010CFB0EF7B0EB074072EB1742F1
:101800000CFB08F734BFA2EB0742B2EB074261EBD7
:1018100017414FEA8C554FEA910704EB9C2406FBD5
:1018200007FC4FEA1C4C0CFB0BF7B0EBC74072EB0C
:10183000573203FB0CF734BFA2EBC742B2EBC742EF
:1018400061EB57310CFB0EF7B0EBC70072EB577230
:101850000CFB08F734BFA2EBC702B2EBC70261EB87
:10186000577115EB4C254FEA816141EA92114FEA1D
:1018700082624FEAD13742EA901206FB07FC44F13C
:1018800000044FEA80604FEA1C4C0CFB0BF7D21BA4
:1018900003FB0CF761EB07010CFB0EF7B0EB074005
:1018A00072EB17420CFB08F734BFA2EB0742B2EB16
:1018B000074261EB174115EB1C154FEA813141EAF4
:1018C00092414FEA823242EA90424FEA80304FEA38
:1018D0000C7644F1000448EA03434EEA0B484FF00B
:1018E000000EB2EB080C71EB030724BF62463946C9
:1018F0004EEB0E0E4FF0000B0018524149414BEBDE
:101900000B0BB2EB080C71EB03077BF1000B24BF50
:10191000624639464EEB0E0E4FF0000B0018524156
:1019200049414BEB0B0BB2EB080C71EB03077BF15E
:10193000000B24BF624639464EEB0E0E51EA0207F9
:1019400018BF46F0010616EB0E7655F1000254F171
:10195000000103D5BDE88901BDE80088BDE8890123
:10196000BDE80048B619524141EB0101A3F1010362
:10197000704780807F7E7D7C7B7A797877767675FC
:101980007473727171706F6E6E6D6C6C6B6A6A6974
:101990006868676666656464636362616160605F0E
:1019A0005F5E5E5D5D5C5C5B5B5A5A595958585787
:1019B00057565655555554545353525252515150EF
:1019C00050504F4F4F4E4E4D4D4D4C4C4C4B4B4B42
:1019D0004A4A4A4949494848484747474746464688
:1019E00045454544444444434343434242424241C3
:1019F0004141002B9C4630D477002BD01CB54FEAD8
:101A0000370703B44FF010004FF01001BAF1000F88
:101A100006D0BCF1000FDCBF40F0080040F0080128
:101A20004FF000000FBCBDE810400BF1010BBBF103
:101A3000010F08BF5FEA170722BF12F1010211F17F
:101A400001014FF0004143F1000300F0004043EA80
:101A500000007047F9D35708D0E746EA064613F16D
:101A6000400F4FEA16461FDD13F1200FDFBF16436C
:101A70000A46002120335B42BED0C3F1200746EA6C
:101A8000064602FA07F74FEA164646EA0706C3F18A
:101A9000200722FA03F201FA07F721FA03F14FF0C7
:101AA000000342EA0702A7E746EA020646EA0646BC
:101AB0004FEA164646EA0106BCBF46EA0646360C21
:101AC0004FF000034FF000024FF0000194E72DE9C2
:101AD000804C9A46934670B491E8380007C831EAC2
:101AE000400C48BF34EA430C03D5FFF7E6FDFFF78F
:101AF00080FFF0BCBDE8008C2DE9804C9A469346EF
:101B000070B491E8380007C810F0804F08BF13F098
:101B1000804F03D100F005F8FFF76BFFF0BCBDE884
:101B2000008C20F07F4780EA030023F07F4C07EB16
:101B30000C03A3F57C5300F00040A3F1FE0392F0E8
:101B4000000F00F0B38095F0000F00F077802DE9D2
:101B500001494FEA11404FEA144621EA004800FBD0
:101B600006FC24EA064708FB06F607FB08F800FB1C
:101B700007F718EB06484CEB164C4FEA124B18EBE4
:101B800007484FEA15464CEB174022EA0B4E0BFB79
:101B900006FC25EA06470EFB06F607FB0EFE0BFBCE
:101BA00007F71EEB064E4CEB164C4FF000061EEBF3
:101BB000074E4CEB174B18EB0B0840F1000018EBED
:101BC0000E0B58EB000840F100008F1A4FF0000197
:101BD0003CBFC943661B14BFB5EB040C00213CBFDE
:101BE000C943F61B4FEA17444EEA8E0E27EA044516
:101BF0004FEA1C4704FB07622CEA074C05FB07F77A
:101C00000CFB05F604FB0CFC16EB074642EB1742F7
:101C100016EB0C4642EB1C421BEB060658EB02028D
:101C2000414146EA9E0601D5BDE80189B6195241F7
:101C300041EB0101A3F10103BDE801894FEA14451D
:101C40004FEA114724EA054621EA074C05FB07F451
:101C500006FB07F70CFB06F105FB0CFC11EB07413B
:101C600044EB17444FEA124711EB0C4144EB1C4480
:101C700022EA074C05FB07F206FB07F70CFB06F60A
:101C800005FB0CFC16EB074642EB174216EB0C4625
:101C900042EB1C456A1854F1000148BF7047B61961
:101CA000524141EB0101A3F10103704795F0000F90
:101CB00037D04FEA11424FEA144721EA024624EA9C
:101CC000074C02FB07F106FB07F70CFB06F402FBCF
:101CD0000CFC14EB074441EB17414FEA154714EB9A
:101CE0000C4441EB1C4125EA074C02FB07F506FBBF
:101CF00007F70CFB06F602FB0CFC16EB074645EB60
:101D0000174516EB0C4645EB1C42121951F1000128
:101D100048BF7047B619524141EB0101A3F10103DD
:101D200070474FEA14454FEA114724EA054621EA75
:101D3000074C05FB07F106FB07F70CFB06F24FF01B
:101D4000000605FB0CFC12EB074241EB174112EBBE
:101D50000C4251EB1C4148BF7047921841EB010106
:101D6000A3F101037047FEE7014800F024BC000026
:101D700098020020014800F01EBC0000F80200207C
:101D80000D4902688A4201D20C4901E00B49203119
:101D9000D2B21423083AB2FBF3F2436C02F01F02F2
:101DA00023F003031944816404498031C164012193
:101DB000914001657047000008040240000802409D
:101DC0000179074A02EB81024265054A4432491E05
:101DD000826501F01F0201219140C165704700003A
:101DE000FC08024030B5D0E913456560446D14B17C
:101DF000D0E91645656090F8444004F01F050124C1
:101E0000AC40056C6C60046863608368102B0368E9
:101E100003D099600068C26030BD9A600068C160FC
:101E200030BD7047002240F6B83306E00021491C5F
:101E300089B29942FBD3521C92B28242F6D37047C8
:101E400072B6FEE72DE9F84F00270446009790F898
:101E50005800DFF8E0930D46B846012811D001265E
:101E600084F85860206803F033F960B1E06D40F009
:101E70002000E0655FF0010784F858803846BDE82F
:101E8000F88F0220FBE7D5E900210C23206803EA44
:101E900091131844036B01F01F014FF01F0C0CFA53
:101EA00001FCC2F3846223EA0C038A4013430363F8
:101EB000206803F00DF98246206803F005F95AEA1C
:101EC00000003CD1AA6829682068B2F1004F37D0E1
:101ED00003F002F92068416921F000414161206866
:101EE0006969C268C2F3C102520091402A69042A9A
:101EF00031D000EB82002B68026EDFF83CC303F0A8
:101F0000F84302EA0C020B431A4342F00041016617
:101F100020682A69A96900EB8200026E22F08072B3
:101F20000A430266297F22682869012910D000210E
:101F300002EB8000026E22F000720A4302667DE02E
:101F4000002203F0C9F82068416941F00041C5E76B
:101F50004FF00071ECE7002103F0B0F84003206877
:101F60004FF0000172D003F0A9F890FAA0F0B0FA97
:101F700080F1286842036ED090FAA0F0B0FA80F0A9
:101F8000814204D100221146206803F0B4F80121F7
:101F9000206803F093F8400320684FF001015DD002
:101FA00003F08CF890FAA0F0B0FA80F128684203B0
:101FB00059D090FAA0F0B0FA80F0814204D100220A
:101FC0000121206803F097F80221206803F076F8D9
:101FD000400320684FF0020148D003F06FF890FAF8
:101FE000A0F0B0FA80F12868420344D090FAA0F043
:101FF000B0FA80F0814204D100220221206803F06F
:102000007AF80321206803F059F8400320684FF064
:10201000030133D003F052F890FAA0F0B0FA80F147
:10202000286842032FD090FAA0F0B0FA80F08142E5
:1020300004D100220321206803F05DF82068816844
:1020400011F0010F22D0ACE000E004E003F036F81C
:10205000C0F384618DE7C0F3846091E703F02EF84C
:10206000C0F38461A2E7C0F38460A6E703F026F81A
:10207000C0F38461B7E7C0F38460BBE703F01EF8E8
:10208000C0F38461CCE7C0F38460D0E72A7B296881
:1020900050F8B03FC1F3120C23EA0C0302F0180C05
:1020A000664A22FA0CF20A4013430360E968494584
:1020B00077D1286841031CD090FAA0F1B1FA81F1E0
:1020C000491C01F01F0109294FEA403132D800298B
:1020D00012D000BF90FAA0F1B1FA81F101F1010133
:1020E00001F01F0106FA01F609D100BFC0F38461B7
:1020F00009E0C0F38461E3E7C0F38461EEE790FA9E
:10210000A0F1B1FA81F101F1010101F01F0146EAEC
:10211000816102D1C0F3846003E090FAA0F0B0FACC
:1021200080F000F1010000F01F0000EB400041EAE8
:10213000005132E000290ED090FAA0F1B1FA81F1FD
:1021400001F1010101F01F0106FA01F606D100BFFD
:10215000C0F3846106E0C0F38461F1E790FAA0F176
:10216000B1FA81F101F1010101F01F0146EA81613B
:1021700002D1C0F3846003E090FAA0F0B0FA80F0DE
:1021800000F1010000F01F002D4A00EB400002EBBF
:10219000005041EA000141F00071AA68206802F095
:1021A0009BFF28482A6802423FF466AE26488168B1
:1021B000264B01F0E0719A4202D0254B9A421CD185
:1021C0000B021AD42268B2F1A04F7FF455AE826898
:1021D00041F4000122F0E0720A4382601D481E496A
:1021E0000068B0FBF1F0401C00EB4000800000E014
:1021F000401E00900028FBD13EE6184D184BAA4225
:1022000007D1CD0105D422689A42F5D041F0807102
:1022100009E0144DAA42EFD14A02EDD422689A4255
:10222000EAD041F48001826822F0E0720A438260C1
:1022300022E6000000007F4000F0FF03FFFF0700E0
:10224000000020FE0000088000030050000021C3B1
:102250001000C0900C000020400D0300000052C789
:1022600000010050000084CBF8B54FF000050400D9
:102270002E46009502D0E06D10B107E00120F8BDB8
:10228000204600F0EBF8266684F8586020688168E4
:10229000C1F3407119B18168684A114081602068BA
:1022A0008168C1F3007189B98168654A114041F0C4
:1022B00080518160634864490068B0FBF1F04000E0
:1022C000801C00E0401E00900028FBD1206881683F
:1022D000C1F3007141B9E16D41F01001E165216E7A
:1022E00041F001012166012502F0F2FEE16DC9060F
:1022F00000D430B1E06D40F01000E06501252846C3
:10230000F8BDE06D20F4807040F00200E0652068C8
:10231000806810F0010F11D14FF0A04080684B4948
:1023200000F00100896801F00101084306D1484826
:102330006168826822F47C120A438260E168E06B83
:10234000627F0843A16841EA4231084394F82410AF
:1023500040EA0140012904D1218D3E4A02EB41416E
:102360000843E16A29B101F47871226B014342EA22
:1023700001002268D168384B19400143D1602068C0
:102380000169626B21F0406111430161206802F034
:102390009BFE70BB207F94F83810800340EA410216
:1023A0002168C86844F2020398431043C86020695A
:1023B0000028206801690AD041F480310161206859
:1023C00050F8C01F22696FF30D01114307E021F49B
:1023D00080310161206850F8C01F6FF30D0101606A
:1023E00094F8400001280CD02068016921F0010117
:1023F0000161606901282068016B21F00F0111D093
:1024000013E0D4E911010843D4E91312114308433E
:1024100021680A6940F2FC739A43104340F00100BE
:102420000861E6E7226A521E11430163E06D20F065
:10243000020040F00100E06561E70000C0FFFF5FBF
:10244000C0FFFF7F0C000020400D03000001005082
:10245000000300500000FEFF0740F0FF10B598B0E9
:102460000446142111A8FEF721F844216846FEF71E
:102470001DF815492068884223D1C4014005009405
:102480000F90684600F0D8FB08B1FFF7D9FC0F4861
:10249000C16C41F40051C164C16C01F4005116914A
:1024A000C16C41F00201C164C06C11A900F00200CE
:1024B00016900320CDE9114000201390044800F04D
:1024C0008FF918B010BD000000010050001002404C
:1024D0000004004810B590F8253000210122022B9D
:1024E00003D00421C163012122E003681C6824F0A9
:1024F0000E041C60836C1C6824F480741C600368E8
:102500001C6824F001041C6090F84430046C03F053
:102510001F0302FA03F36360D0E913345C60436D78
:1025200033B11C6824F480741C60D0E916345C60FC
:1025300080F82520002280F82420084610BD70B5C0
:1025400090F82520002401212346022A07D00422E6
:10255000C26380F8251080F82430012429E0026845
:10256000156825F00E0515600268156825F001054F
:102570001560826C156825F48075156090F844200C
:10258000056C02F01F0201FA02F26A60D0E913251D
:102590005560426D32B1156825F480751560D0E93B
:1025A0001625556080F8251080F82430816B01B124
:1025B0008847204670BDF0B4016C0C6801680D6856
:1025C00090F8442002F01F06042202FA06F3234288
:1025D00011D06B070FD50B689B0603D40B6823F053
:1025E00004030B6090F8441001F01F018A40016C55
:1025F0004A60016B1DE0022303FA06F727424FF001
:10260000000C4FF0010218D0AF0716D50C68A406D5
:1026100005D40C6824F00A040C6080F8252090F89A
:10262000441001F01F018B40016C4B6080F824C006
:10263000C16A00291AD0F0BC08470823B3402342DE
:1026400014D02B0712D50B6823F00E030B6090F803
:102650004410036C01F01F0102FA01F15960C263DA
:1026600080F8252080F824C0416BE2E7F0BC704779
:1026700070B504000CD02B4A21681420914209D275
:10268000294A0A44B2FBF0F08000606427480AE05F
:10269000012070BD234A52420A44B2FBF0F0800090
:1026A0006064204808382064022084F825000A6805
:1026B00047F6F0708243D4E902031843D4E90435A5
:1026C0002B431843A3691843E3691843236A18434B
:1026D000104308602046FFF753FBA0680025B0F5C3
:1026E000804F00D16560A16C20790860D4E91301A6
:1026F00041606068401E032808D82046FFF760FB51
:10270000606D0560D4E91601416002E06565A5656C
:10271000E565E563012084F8250084F82450002055
:1027200070BD000008040240F8FFFDBF0000024039
:1027300070B5044690F82400002501280CD0012033
:1027400084F8240094F825600020012E06D084F837
:1027500024000225284670BD022070BD022684F8A0
:102760002560E0632068066826F0010606602046C2
:10277000FFF738FB206B00282068016802D041F089
:102780000E0106E021F0040101602068016841F0BB
:102790000A010160A06C0168C90303D5016841F416
:1027A00080710160606D18B1016841F48071016051
:1027B0002068016841F001010160CBE770B5044673
:1027C00000F03CF90546601C02D00448406804440F
:1027D00000F034F9401BA042FAD370BD0000002085
:1027E0002DE9F04FDFF82092002301260324A9F100
:1027F000040B85B00F2709F1040AABF1040EFAE0CF
:1028000006FA03F52A407CD091F804C00CF0030CC2
:10281000BCF1010F02D0BCF1020F26D1D0F808C0E4
:10282000CDF800C04FEA430C04FA0CF8CDF810C004
:10283000DDF800C02CEA080CCDF800C0D1F80C80FF
:10284000DDF810C008FA0CF8DDF800C048EA0C0802
:10285000C0F80880D0F804C02CEA050C0D79C5F347
:1028600000159D4045EA0C0545600D79ED43AD0727
:102870000ED0C5684FEA430804FA08FC25EA0C05A7
:10288000D1F808C00CFA08FC4CEA050CC0F80CC0E2
:102890000D7905F00305022D16D1DD0800EB850C3E
:1028A000CDF808C0DCF820805D074FEAD56C07FA48
:1028B0000CF528EA05080D6905FA0CF5DDF808C0E5
:1028C00045EA0805CCF8205005684FEA430CCDF8DE
:1028D00008C004FA0CFC25EA0C0591F804C00CF0C1
:1028E0000308DDF808C008FA0CF848EA0508C0F843
:1028F00000804D6815F4403F7CD0444DD5F860C051
:1029000000E077E04CF0010CC5F860C02D6E23F0BC
:10291000030C05F0010500953D4D65440295AD6839
:102920004FEA837C4FEA1C7807FA08FC25EA0C057D
:10293000B0F1904F06D0DFF8DCC0604505D14FF014
:10294000010C20E04FF0000C1DE0DFF8CCC060452A
:1029500002D14FF0020C16E0DFF8C0C0604502D192
:102960004FF0030C0FE0DFF8B8C0604502D14FF024
:10297000040C08E0DFF8ACC0604502D14FF0050C54
:1029800001E04FF0060C0CFA08FC4CEA050C029D25
:10299000C5F808C0D9F80050CC46D1F8048095435A
:1029A0005FEAC82800D51543CCF80050DAF800508B
:1029B000D446D1F8048095435FEA882800D51543B2
:1029C000CCF80050DBF80050DC46D1F80480954389
:1029D0005FEA883800D51543CCF80050DEF8005087
:1029E000F446D1F8048095435FEAC83800D5154312
:1029F000CCF800505B1C0A6832FA03F57FF400AF94
:102A000005B0BDE8F08F000008040140001002404E
:102A1000000001400004004800080048000C004885
:102A200000100048001400480069084000D0012050
:102A300070470AB1816170478162704701488068C0
:102A4000704700000000002002488168426811447D
:102A5000816070470000002010B50024032000F0C2
:102A600073F80F2000F008F808B1012401E000F02D
:102A700025F8204610BD000070B50E4E0546002416
:102A8000706898B14FF47A71B1FBF0F00A490968A7
:102A9000B1FBF0F000F0F8FE40B9102D06D2002294
:102AA0002946501E00F030F8356000E00124204631
:102AB00070BD0000000000200C0000200A4882B019
:102AC000016E41F001010166016E01F0010100910A
:102AD000816D41F080518165806D00F080500090E3
:102AE00002B000F0A1B8000000100240002809DB8D
:102AF00000F01F02012191404009800000F1E02018
:102B0000C0F8001170470000F0B40E4B1B680C4673
:102B1000C3F30223C3F10705042D00D90425191DB1
:102B2000072901D2002300E0DB1E012606FA05F189
:102B3000491E214099409E40761E16403143F0BC0C
:102B400003F08ABD0CED00E0064900F007020868BA
:102B50004FF6FF03184040EA0220034A1043086082
:102B6000704700000CED00E00000FA052B492C4BEB
:102B70000A6832214A432B4940B1B0F5007F08680A
:102B800029D020F4C06040F480602CE00868C0F3D5
:102B90004120022804D051F8800F20F4807022E0F8
:102BA000D1F8800020F48070C1F88000086820F41B
:102BB000C06040F400700860B2FBF3F0401C00E01D
:102BC000401E4A69520501D50028F9D148694005DF
:102BD0000AD503207047C0F34120022806D051F8DF
:102BE000800F40F48070086000207047D1F88000AA
:102BF00040F48070C1F88000086820F4C06040F4A0
:102C000000700860B2FBF3F0401C00E0401E4A690F
:102C10005205DBD50028F9D1D8E700000C000020D0
:102C200040420F00007000400248816841F480413A
:102C300081607047007000402DE9F8430446006849
:102C400000269D4D00035ED5A86D0027C00008D466
:102C5000A86D40F08050A865A86D012700F0805055
:102C60000090DFF85892D9F8001041F48071C9F84B
:102C70000010FFF7E3FE804606E000BFFFF7DEFE30
:102C8000A0EB080002282BD8D9F80000C005F5D524
:102C9000D5F8900010F4407014D0216C814211D00E
:102CA000D5F89000D5F8901020F4407041F48031B0
:102CB000C5F89010D5F8901021F48031C5F8901027
:102CC000C5F89000C00711D0FFF7B8FE804641F26A
:102CD000883907E0FFF7B2FEA0EB0801494501D9AA
:102CE00003260BE0D5F890008007F3D5D5F89000C7
:102CF000216C20F440700843C5F890001FB1A86D06
:102D000020F08050A8652078C00707D0D5F888004B
:102D1000616820F003000843C5F888002078800728
:102D200007D5D5F88800A16820F00C000843C5F845
:102D300088002078400707D5D5F88800E16820F0A2
:102D400030000843C5F888002078000707D5D5F87B
:102D50008800216920F0C0000843C5F88800207869
:102D6000800607D5D5F88800616920F440600843E3
:102D7000C5F888002078400607D5D5F88800A169F5
:102D800020F440500843C5F888002078000607D595
:102D9000D5F88800E16920F440400843C5F8880070
:102DA0002088C00507D5D5F88800216A20F4403076
:102DB0000843C5F888002088800507D5D5F8880025
:102DC000616A20F440200843C5F888002088400547
:102DD0000FD5D5F88800A16A20F440100843C5F843
:102DE0008800A06AB0F5801F03D1E86840F4801025
:102DF000E860208800050FD5D5F88800E16A20F446
:102E000040000843C5F88800E06AB0F5800F03D1A0
:102E1000E86840F48010E8602088C0040FD5D5F839
:102E20008800216B20F040700843C5F88800206BB3
:102E3000B0F1807F03D1E86840F48010E86020881A
:102E40004FF0006180040ED5D5F88800626B20F049
:102E500040601043C5F88800606B884203D1E86881
:102E600040F48010E860208840040ED5D5F8880032
:102E7000A26B20F040601043C5F88800A06B884228
:102E800003D1E86840F48010E860208800040FD582
:102E9000D5F88800E16B20F040500843C5F8880061
:102EA000E06BB0F1805F03D1E86840F48030E86007
:102EB0003046BDE8F883000000100240007000407A
:102EC0002DE9F0470E4605004FF0000725D0DFF84A
:102ED000AC81D8F8000000F00F00B0420CD2D8F856
:102EE000001021F00F013143C8F80010D8F800009D
:102EF00000F00F00B04210D12968614CC80741F2C0
:102F0000883A5AD06868DFF87C91032808D00228F4
:102F100020682DD0400500282CDB0120BDE8F0877B
:102F200020688001F9D5E06800F00302E068C0F392
:102F30000310401C032A19D0534A00BFB2FBF0F023
:102F4000E268C2F306225043E268C2F34162521CB7
:102F50005200B0FBF2F0484517D9A06810F0F00F0E
:102F60000CD0880711D5A86840B10EE0474AE5E7C4
:102F70008003D0E700F0B6F8484506D9A06820F0F5
:102F8000F00040F08000A0608027A068696820F011
:102F900003000843A060FFF751FD814606E000BF33
:102FA000FFF74CFDA0EB090151453AD8A0686968CC
:102FB00000F00C00B0EB810FF2D12868810714D526
:102FC000400703D5A06840F4E060A06028780007BF
:102FD00005D5A06820F4605040F4E060A060A068CF
:102FE000A96820F0F000084304E0802F03D1A06816
:102FF00020F0F000A060D8F80010404601F00F016A
:10300000B14216D9016821F00F0131430160FFF789
:1030100015FD074607E000BFFFF710FDC11B514536
:1030200001D903207AE7D8F8000000F00F00B04281
:10303000F2D12878400705D5A068E96820F4E0605F
:103040000843A0602878000706D5A068296920F405
:10305000605040EAC100A06000F044F8A1680C4A4A
:10306000C1F30311515C01F01F01C8400949086018
:1030700009480068BDE8F047FFF7FEBC00200240A9
:103080000010024000B4C4040024F40000366E01B5
:10309000C66700080C000020000000200548064913
:1030A00000688968054AC1F30221515C01F01F01E3
:1030B000C84070470C00002000100240D66700088E
:1030C0000548064900688968054AC1F3C221515C78
:1030D00001F01F01C84070470C00002000100240A2
:1030E000D6670008184910B58868C0F381021748F0
:1030F000012A0BD08A68164BC2F38102022A06D03D
:103100008A68C2F38102032A03D0002010BD18464A
:1031100010BDCA6802F00304CA68C2F30312521C4D
:10312000032C02D0B0FBF2F001E0B3FBF2F0CA686E
:10313000C968C2F306225043C1F34161491C4900EA
:10314000B0FBF1F010BD0000001002400024F400BC
:1031500000366E012DE9F84304007AD02078F84D4E
:10316000C00747D0A868E96800F00C0001F003012F
:103170000C2802D0082817D001E0032914D0606879
:10318000B0F5803F17D0B0F5A02F286817D020F4F5
:1031900080302860286820F4802028606068E0B1D2
:1031A000FFF74CFC064614E02868800322D56068CF
:1031B0000028D2D01EE0286840F48030EDE740F4CB
:1031C00080202860F7E700BFFFF738FC801B6428E9
:1031D00070D828688003F7D50CE0FFF72FFC06466F
:1031E00005E000BFFFF72AFC801B6428F0D82868A0
:1031F0008003F7D4207880074CD5A868E96800F0F0
:103200000C0001F003010C2802D004280DD001E0CD
:1032100002290AD0E068002828682BD040F480708A
:103220002860FFF70BFC064619E02868400502D528
:10323000E068002891D06868217C20F0FE4040EAD8
:1032400001606860BF480068FFF716FC002800D1E5
:1032500020E072E1FFF7F2FB801B0228B8D8286853
:103260004005F7D56868217C20F0FE4040EA016007
:1032700068600FE020F480702860FFF7DFFB0646EF
:1032800005E000BFFFF7DAFB801B0228A0D8286802
:103290004005F7D42078000729D560690028D5F8C3
:1032A000940013D040F00100C5F89400FFF7C6FB6E
:1032B000064606E090E000BFFFF7C0FB801B022837
:1032C00086D8D5F894008007F6D510E020F00100EC
:1032D000C5F89400FFF7B2FB064604E0FFF7AEFB2B
:1032E000801B022878D8D5F894008007F6D420787F
:1032F000400761D5A86D0026C00008D4A86D40F035
:103300008050A865A86D012600F0805000908E487E
:103310000168C90511D40168804641F480710160DB
:10332000FFF78CFB074604E0FFF788FBC01B022871
:1033300052D8D8F80000C005F6D5A068012815D0ED
:103340000528D5F8900016D020F00100C5F89000AF
:10335000D5F8900020F00400C5F89000A06841F274
:103360008838B8B1FFF76AFB07460EE0D5F8900041
:1033700040F00100F0E740F00400C5F89000F5E7E8
:10338000FFF75CFBC11B414526D8D5F890008007AC
:10339000F6D50CE0FFF752FB074604E0FFF74EFBC3
:1033A000C11B414518D8D5F890008007F6D41EB14E
:1033B000A86D20F08050A8652078800629D5A069E6
:1033C0000028D5F8980013D040F00100C5F8980007
:1033D000FFF734FB064606E075E000BFFFF72EFB63
:1033E000801B02286FD8D5F898008007F6D510E02A
:1033F00020F00100C5F89800FFF720FB064604E026
:10340000FFF71CFB801B02285DD8D5F898008007C9
:10341000F6D4E069F0B3A968C1F3810103295DD056
:103420000228286820F08070286003D0FFF706FB90
:1034300004464BE0FFF702FB064604E0FFF7FEFA06
:10344000801B02283FD828688001F7D4F4E90801DE
:103450006FF00F0202EB01110843218A5204490860
:1034600002EB4151A26841EA02210843217D4FF05D
:103470007E42490802EB41610843217B40EAC1607A
:10348000E968324A11400843E860286840F08070DB
:10349000286000E05EE0E86840F08070E860FFF7D8
:1034A000CDFA044605E000BFFFF7C8FA001B02286A
:1034B00009D828688001F7D54CE000BFFFF7BEFAB5
:1034C000001B022802D90320BDE8F8832868800188
:1034D000F4D4E8681E490840E8603BE00128F3D0D6
:1034E000E868226A00F00301914226D1616A00F087
:1034F000F0020901103991421FD1A26A00F4FE4185
:10350000B1EB022F19D194F82C2000F07841B1EBE7
:10351000C26F12D1218E00F4C00249084905A1F5FD
:103520000011914209D194F8341000F0C0604908AC
:103530004906A1F1007181420CD00120C4E70000CE
:103540000010024000000020007000400C809F012D
:10355000FCFFEEFE0020B7E710B500680B4641689F
:103560000D480140080CD870C1F304245C7001F0D0
:103570003F049C70C1F34231197052B902F0BEF998
:10358000D870587802F0BAF95870987802F0B6F905
:103590009870002010BD00003FFFFF0010B50B46E3
:1035A00001688968596001680969C1F30E01996071
:1035B000006801680D480140C1F305401870C1F36F
:1035C00006245C7001F07F049C70890DD97052B99B
:1035D00002F094F91870587802F090F958709878C1
:1035E00002F08CF99870002010BD00007F7F7F00F2
:1035F00070B504004FF0010040D094F8250028B9C0
:10360000002084F82400204600F040F8022084F8CE
:1036100025002068C168C943C90630D5CA21416266
:10362000216853204862204602F07EF910BB2068D2
:103630008169154A11408161216888696268A369BE
:10364000104322691A43104388612189E06840EAE7
:10365000014021680861204602F08BF950B9D4E995
:103660000721114322686369956925F060452B4362
:10367000194391612268FF21516208B170BD002099
:10368000012184F8251070BDBFFF8FFB10B592B0EB
:10369000044644216846FCF709FF10492068884227
:1036A0001AD14FF4002000904FF4407010906846FB
:1036B000FFF7C2FA08B1FEF7C3FB094850F8901FA4
:1036C00041F4004140F83819016841F4806101601B
:1036D000006800F48060119012B010BD0028004016
:1036E0000010024070B5044690F824000B460128F3
:1036F0001BD0012684F82460022084F82500B2B192
:103700009878D97840EA014558781978000240EA5B
:10371000413005432168CA2048622168532048622D
:10372000204602F001F9D0B120E0022070BD5878A7
:10373000C10603D500F0EF000A305870D87802F0C7
:10374000E6F80504587802F0E2F845EA0025987892
:1037500002F0DDF80543187845EA4035DAE7084815
:10376000054020684560204602F003F92268FF21E9
:10377000516208B984F82560002184F8241070BDD6
:103780003FFFFF002DE9F041044690F824009046E9
:103790000D46012811D0012784F82470022084F8F6
:1037A00025002168CA2048622168532048622046CB
:1037B00002F0BAF8002618B129E00220BDE8F08135
:1037C0002068B8F1000F80694FEA406024D00028DB
:1037D00000DBEE70A8782978EA7840EA0140697841
:1037E000090241EA825108431849084021680860EB
:1037F0002068816921F480218161D5E903010843B2
:1038000021688A6910438861204602F0B2F8226874
:10381000FF215162A0B115E0002800DBEE7028788E
:1038200002F075F80304687802F071F843EA0023A7
:10383000A87802F06CF80343E87843EA8050D3E7B5
:1038400084F8257084F82460B8E700007F7F7F004B
:1038500070B504460B482168C860FFF7EFF80546CD
:103860004FF47A7607E000BFFFF7E8F8401BB0425C
:1038700001D9032070BD2068C0688006F4D50020FF
:1038800070BD00005F00010010B5401EB0F1807FE8
:1038900001D3012010BD4FF0E02460610F216017BB
:1038A00002F0DAFE0020A06107202061002010BD98
:1038B000704770477047704770477047F0B590F891
:1038C0003C20012A3AD0012580F83C50022280F8A1
:1038D0003D2003685A689C68194E1A4FB34201D0C4
:1038E000BB4204D122F4700C4A6842EA0C02DFF8B1
:1038F00058C002EA0C02D1F800C04CEA020CC3F82E
:1039000004C00268B2420DD0B2F1804F0AD00F4B12
:103910009A4207D00E4B9A4204D0BA4202D00D4BC5
:103920009A4204D1896824F080031943916080F899
:103930003D50002180F83C100846F0BD0220F0BD4B
:10394000002C0140003401408FFFFFFD00040040C7
:103950000008004000400140704710B5040003D04B
:1039600094F83D0010B107E0012010BD002084F85C
:103970003C00204600F022F8022084F83D00211D82
:10398000206802F0B1F8012084F8480084F83E0075
:1039900084F83F0084F8400084F8410084F8420035
:1039A00084F8430084F8440084F8450084F8460015
:1039B00084F8470084F83D00002010BD08B5016878
:1039C0001D48B1F1804F11D01C4A91421DD1816D2B
:1039D00041F020018165806D002200F02000009000
:1039E00011463720FFF790F837201FE0816D41F036
:1039F00001018165806D002200F0010000901146F8
:103A00001C20FFF781F81C2010E00D4A914211D1D3
:103A1000016E41F480210166006E002200F48020D6
:103A2000009011461A20FFF76FF81A20BDE80840F1
:103A3000FFF75CB808BD0000001002400014004011
:103A40000048014070B5044690F83C00002501286C
:103A500014D0012684F83C60022084F83D002268DE
:103A60009068364B184020F47F40906008687028BA
:103A70002ED010DC10F00F0F03D021E04FF0020029
:103A800070BD4FEA2012072A1AD2DFE802F0525224
:103A900052524A3840002A4BC21A984249D009DC97
:103AA000B0F5805F0DD0B0F5005F1CD0B0F1101FF5
:103AB00006D13EE0102A3CD0202A3AD0502A38D0F5
:103AC000012584F83D60002084F83C00284670BD44
:103AD000CB68D1E90121206802F071F82068816883
:103AE00041F0770109E0CB68D1E90121206802F0BB
:103AF00066F82068816841F480418160E1E7CA6826
:103B00004968206802F006FA5021206806E0CA6879
:103B10004968206802F046FA6021206802F05AF8ED
:103B2000CFE7CA684968206802F0F4F940212068AC
:103B3000F4E7226801461046F0E7000088FFCEFF58
:103B40002000100090F83C20012A0CD0012200F83F
:103B50003C2F0223437050F83C3C596142700021D5
:103B600001700846704702207047000010B50446F7
:103B70000D48844216D1207F022813D1042120460B
:103B800000F091FC0949401C0022086123685A6238
:103B9000074AB2FBF0F088612046BDE810400421DE
:103BA00000F016B910BD0000200100201000002018
:103BB00040420F002DE9F041054690F83C000026F8
:103BC0000C46012810D0012085F83C0072B1042A6F
:103BD0001CD0082A2CD00C2A50D00126002085F8B1
:103BE0003C003046BDE8F0810220FBE7D4E900123A
:103BF000E368286802F0A0F92868816921F00C01C7
:103C0000816128688169A26811430FE0D4E900123C
:103C1000E368286802F0D8F92868816921F44061D6
:103C2000816128688169A26841EA02218161D5E742
:103C30002868D4E9002C277B036A016A21F480718B
:103C40000162C16923F4206321F0030141EA0C0100
:103C500021F0F00C39074FF420674CEA116107EAB4
:103C600002221A43C16102622868C16921F00C0175
:103C7000C1612868C169A26811432BE02868D4E9B2
:103C80000021E768036AD0F820C02CF4805CC0F8FB
:103C900020C0D0F81CC023F420432CF4407C4CEA14
:103CA000012121F4704C4FF6FF7101EA07314FF406
:103CB000204741EA0C0107EA02321A43C16102625D
:103CC0002868C16921F44061C1612868C169A2689E
:103CD00041EA0221C16181E710B5040003D094F8E4
:103CE0003D0010B107E0012010BD002084F83C0029
:103CF000204600F023F8022084F83D00211D2068B2
:103D000001F0F2FE012084F8480084F83E0084F8B7
:103D10003F0084F8400084F8410084F8420084F8B1
:103D2000430084F8440084F8450084F8460084F891
:103D3000470084F83D00002010BD000030B587B07A
:103D4000044614216846FCF7B1FB1E4920688842EE
:103D500035D11D48816D41F002018165816D01F011
:103D600002010591C16C41F00101C164C16C01F017
:103D700001010591C16C41F00201C164C06C0224D3
:103D800000F002000590802000258DE83100CDE98B
:103D9000035469464FF09040FEF722FD10208DE855
:103DA0003100CDE9035469460848FEF719FD0022A9
:103DB00011461D20FEF7A8FE1D20FEF797FE07B056
:103DC00030BD000000040040001002400004004824
:103DD00010B5044679B1042912D0082915D00C2950
:103DE00018D0102919D094F8430000BF94F8472048
:103DF000012817D114E094F83E0094F84420F7E726
:103E000094F83F0094F84520F2E794F8400094F8C5
:103E10004620EDE794F84100E8E794F84200E5E732
:103E2000012A01D0012010BD022081B3042934D021
:103E3000082937D00C293AD010293BD084F8430008
:103E400084F847000122206801F0ACFE1B4920687D
:103E500088420ED0B0F1804F0BD01949884208D06B
:103E60001849884205D01849884202D0174988422B
:103E700007D18168164A1140062906D0B1F5803F66
:103E800003D0016841F001010160002010BDFFE78F
:103E900084F83E0084F84400D4E784F83F0084F8B6
:103EA0004500CFE784F8400084F84600CAE784F86C
:103EB0004100C5E784F84200C2E70000002C014041
:103EC0000004004000080040003401400040014070
:103ED0000700010030B50446002571B1042911D056
:103EE000082914D00C2917D0102918D094F84300B1
:103EF00094F84720012817D114E094F83E0094F874
:103F00004420F7E794F83F0094F84520F2E794F84E
:103F1000400094F84620EDE794F84100E8E794F873
:103F20004200E5E7012A01D0012030BD022079B12D
:103F3000042916D008291DD00C2949D010294AD0AF
:103F400084F8430084F847000C2947D001253DE060
:103F500084F83E0084F844002068C26842F00202FF
:103F600010E084F83F0084F845002068C26842F001
:103F7000040207E084F8400084F846002068C26824
:103F800042F00802C2600122206801F00BFE1649CF
:103F9000206888420ED0B0F1804F0BD01349884280
:103FA00008D01349884205D01249884202D01249EC
:103FB000884207D18168114A1140062906D0B1F51F
:103FC000803F03D0016841F001010160284630BD07
:103FD00084F84100B6E784F84200B3E72068C2687D
:103FE00042F01002CEE70000002C01400004004027
:103FF000000800400034014000400140070001007B
:104000002DE9F04104460068C66805694FF00007D5
:10401000A90713D5B10711D5F91E01610120207739
:10402000206880698007204602D0FFF79FFD04E0EA
:1040300000F0DEF8204600F0A0F92777680716D5D3
:10404000700714D521686FF0040008610220207702
:104050002068806910F4407F204602D0FFF786FD7B
:1040600004E000F0C5F8204600F087F9277728071C
:1040700015D5300713D521686FF0080008610420BA
:1040800020772068C0698007204602D0FFF76EFDC8
:1040900004E000F0ADF8204600F06FF92777E8065D
:1040A00016D5F00614D521686FF0100008610820BD
:1040B00020772068C06910F4407F204602D0FFF7C7
:1040C00055FD04E000F094F8204600F056F92777FB
:1040D000E80708D0F00706D021686FF001000861FA
:1040E000204600F0DFF9280601D4A80408D53006E0
:1040F00006D521686FF4025008612046FFF7D9FB0E
:10410000E80508D5300606D521686FF4807008618F
:104110002046FFF7CDFB680608D5700606D5216856
:104120006FF040000861204600F0D2F9A80608D5DB
:10413000B00606D521686FF0200008612046FFF721
:10414000B9FBE80208D5F00206D521686FF48010AB
:1041500008612046FFF7B0FBA80208D5B00206D5DB
:1041600021686FF4001008612046FFF7A4FB680285
:1041700008D5700206D521686FF4800008612046DA
:10418000FFF79BFB28020AD5300208D521686FF49F
:10419000000008612046BDE8F041FFF7DDBBBDE847
:1041A000F081000010B586B0044614216846FCF783
:1041B0007DF92068B0F1804F15D10C48C16C41F0F9
:1041C0000101C164C06C694600F001000590022045
:1041D00000900190002002900390012004904FF085
:1041E0009040FEF7FDFA06B010BD0000001002403E
:1041F000704770B5044690F83C0000260D46012833
:104200000BD0012084F83C000C2A4AD007DC82B194
:10421000042A20D0082A06D131E0022070BD102ADD
:1042200053D0142A63D00126002084F83C00304685
:1042300070BD206801F0D8FC2068816941F0080158
:1042400081612068816921F00401816120688169B0
:104250002A69114311E0206801F014FD206881698A
:1042600041F4006181612068816921F4806181618C
:10427000206881692A6941EA02218161D4E72068C6
:1042800001F048FD2068C16941F00801C161206862
:10429000C16921F00401C1612068C1692A69114323
:1042A00011E0206801F07EFD2068C16941F40061E1
:1042B000C1612068C16921F48061C1612068C16960
:1042C0002A6941EA0221C161AEE7206801F0B2FD2E
:1042D0002068016D41F0080101652068016D21F041
:1042E000040101652068016D2A69114311E020680D
:1042F00001F0D8FD2068016D41F40061016520687E
:10430000016D21F4806101652068016D2A6941EA2F
:104310000221016588E710B5040003D094F83D0040
:1043200010B107E0012010BD002084F83C002046B9
:1043300000F022F8022084F83D00211D206801F0E1
:10434000D3FB012084F8480084F83E0084F83F0045
:1043500084F8400084F8410084F8420084F8430067
:1043600084F8440084F8450084F8460084F8470047
:1043700084F83D00002010BD7047704770B50025DF
:104380000446022269B1042916D0082955D00C2907
:104390005ED0102963D094F84300012866D0012034
:1043A00070BD94F83E000128F9D184F83E202068C1
:1043B000C26842F0020209E094F83F000128EED101
:1043C00084F83F202068C26842F00402C2600122E3
:1043D000206801F0E7FB2B4920682B4A2B4B8842D1
:1043E00009D0904207D0984205D0294EB04202D061
:1043F000284EB04203D1466C46F40046466420681D
:1044000088420CD0B0F1804F09D02349884206D0B1
:104410002249884203D0904201D0984207D1816856
:104420001F4A1140062906D0B1F5803F03D001682C
:1044300041F001010160284670BD94F84000012858
:10444000ADD184F840202068C26842F00802BDE780
:1044500094F841000128A2D184F8412008E094F8A2
:10446000420001289BD184F8422003E084F84320D5
:104470000C2901D00125DEE72068C26842F0100255
:10448000A4E70000002C014000340140004001403E
:104490000044014000480140000400400008004082
:1044A0000700010070470246002041B1042909D0ED
:1044B00008290AD00C2901D11068006C70471068D7
:1044C000406B70471068806B70471068C06B704716
:1044D000704790F88410012918D0012180F88410C9
:1044E0002421C0F8881001680A680B6823F00103D2
:1044F0000B6022F0005100224266036819602021FF
:10450000C0F8881080F88420104670470220704759
:104510007047704770B5044690F8840001281DD09C
:10452000012084F884002420C4F8880020680568ED
:10453000026822F0010202602068826822F0606254
:104540000A438260204601F05BFD20680560202060
:10455000C4F88800002084F8840070BD022070BD7B
:1045600070B5044690F8840001281DD0012084F81D
:1045700084002420C4F8880020680568026822F0BE
:10458000010202602068826822F060420A43826071
:10459000204601F035FD206805602020C4F8880021
:1045A000002084F8840070BD022070BD7047704701
:1045B000704700002DE9F04103680446D869196886
:1045C0009A6840F60F0528424FF000054FF00206AA
:1045D0000AD187067ED501F0200702F0805C57EAF9
:1045E0000C0777D0616F42E1B64FDFF8DCC21740AD
:1045F00001EA0C0C57EA0C0C6CD05FEAC07C0CD0C2
:104600005FEAC15C09D54FF0010CC3F820C0D4F8B3
:10461000903043F00103C4F89030830709D5D307E5
:1046200007D023681E62D4F8903043F00403C4F826
:10463000903043070AD5D30708D026680423336295
:10464000D4F8903043F00203C4F8903003070CD53F
:1046500001F020033B4308D0266808233362D4F8D6
:10466000903043F00803C4F8903003050BD54B019C
:1046700009D526684FF400633362D4F8903043F0D4
:104680002003C4F89030D4F89030002B3DD0800641
:1046900009D501F0200002F08051084303D0616F7A
:1046A00009B120468847D4F89000216889684906F6
:1046B00002D410F0280F2AD0204601F0D3FD206844
:1046C000806840061ED52068083050E8001F21F0A1
:1046D000400100E021E040E80012002AF3D1D4F8C4
:1046E000800078B179498163D4F88000FDF727FF15
:1046F00000280AD0D4F88000816B00E02046BDE895
:10470000F04108472046FFF753FFBDE8F0812046FF
:10471000FFF74EFFC4F89050F7E7D4F86CC020279D
:10472000BCF1010F7ED15FEAC06C7BD55FEAC16C42
:1047300078D51020186220688068400651D5D4F8DA
:1047400080100A6850680004000C3ED0B4F85C3059
:1047500083423AD9A4F85E000868006880062CD429
:10476000216851E8000F20F4807041E80002002A1F
:10477000F6D12068083050E8001F21F0010140E820
:104780000012002AF5D12068083050E8001F21F0FF
:10479000400140E80012002AF5D1C4F88C70E566AB
:1047A000216851E8000F20F0100041E80002002AC3
:1047B000F6D1D4F88000FDF78DFE2667B4F85C00D2
:1047C000B4F85E10401A81B207E0B4F85C10814280
:1047D0009BD11068800698D526672046FFF798FE83
:1047E00093E7B4F85C00B4F85E10401A81B2B4F8F4
:1047F0005E00002889D0002987D0226852E8000F87
:1048000020F4907042E80003002BF6D12D4BDB43DF
:104810002068083050E8002F1A4040E8002CBCF116
:10482000000F00E00EE0F3D1C4F88C70E566656718
:10483000206850E8002F22F0100240E80023002BEF
:10484000F6D1C9E7C60209D5560207D54FF4801044
:1048500018622046BDE8F041FFF7A9BE03060AD55D
:1048600001F0800302F40002134304D0A16F002979
:104870007FF444AF49E7420611D54A060FD52046DA
:10488000016851E8002F22F0400241E80023002B8C
:10489000F6D1C0F88870856700F010F935E702029C
:1048A00006D54A0004D52046BDE8F041FFF77EBE9C
:1048B000C00195D5002993DA2046BDE8F041FFF705
:1048C00028BE00000100001020010004B9610008AA
:1048D00010B5040003D0D4F8880010B107E001201F
:1048E00010BD002084F88400204600F027F8242022
:1048F000C4F888002068016821F001010160A06A05
:1049000010B1204601F09EFB204601F0EDFC01288D
:10491000E6D02068416821F49041416020688168B8
:1049200021F02A0181602068016841F001010160E5
:104930002046BDE8104001F0E9BB0000F0B597B09B
:104940000646142111A8FBF7B1FD44216846FBF788
:10495000ADFD3249306888425ED101200024CDE9A6
:1049600000046846FEF768F908B1FDF769FA2C48BB
:10497000016E41F480410166016E01F4804116919F
:10498000C16C41F00101C164C06C11A900F00100CB
:1049900016904FF4C06011900220CDE91204072058
:1049A000CDE914404FF09040FDF71AFF1E4D1D4811
:1049B00005F108012860192068601020802781E82F
:1049C00091006C61AC61EC6128462C62FDF750FEF1
:1049D00008B1FDF735FAF567AE62134D1148603541
:1049E000143028601820C5E90104C5E903476C614B
:1049F000AC61EC6128462C62FDF73AFE08B1FDF788
:104A00001FFAC6F88050002211462520AE62FEF73C
:104A10007BF82520FEF76AF817B0F0BD003801409A
:104A200000100240080002409802002070B50446C1
:104A3000D0F88800202801D0022070BD39B332B3ED
:104A40002165A4F85420A4F856200021C4F8901041
:104A50002120C4F88800E06FD8B1154BC362E36F22
:104A600014481863E36F14485863E06F134681637A
:104A70002068E56F00F128022846216DFDF758FEF9
:104A800038B11020C4F890002020C4F8880001201C
:104A900070BD2168402008622068083050E8001F7F
:104AA00041F0800140E80012002AF5D1002070BDDD
:104AB000196200085B620008C9610008704770470E
:104AC000FEE700002DE9F05F01F0DEFD00F078F870
:104AD000DFF8DC80054698F8011088F8010020EA2C
:104AE0000106694021EA050AFDF7A8FF314F08F1E8
:104AF000080407EB86014FF0010B41F8040C00207D
:104B0000A119064601F8010C4FEA000906F1010857
:104B1000454515D1FDF792FFA15D89B957F82610DB
:104B2000411A40F2DC5081420AD304F806B0B8F1D1
:104B3000010F05D11E49002081F8009000F09EF879
:104B4000761C042EE2DB51464FF47A70BAF1010F65
:104B50000CD0022918D0032924D0BAF1040F03D1B4
:104B6000C7F80C9084F80390BDE8F09F217831B924
:104B70000F4A9FED110A82F800B000F023FFC7F83A
:104B8000009084F80090EFE7617831B9B2EE040A42
:104B900000F018FF09A001F033FDC7F8049084F875
:104BA0000190E1E7C7F8089084F80290DCE7000084
:104BB000100000205803002000004842313233002A
:104BC00070B5FDF73BFF144C6169401A322818D9C3
:104BD000124D01212846FDF727FFA0B102212846EA
:104BE000FDF722FF88B104212846FDF71DFF70B1B3
:104BF00001214FF09040FDF717FF50B1FDF71EFF68
:104C00006061002070BD012070BD022070BD0320D6
:104C100070BD042070BD000010000020000400489A
:104C200000B585B014216846FBF740FC4FF6FF70D5
:104C3000009000200321CDE902010190694602485D
:104C4000FDF7CEFD05B000BD0008004800B585B0F9
:104C500014216846FBF72AFC4FF6FF7000900120F4
:104C60000190032003900020029069460248FDF75E
:104C7000B7FD05B000BD00000008004870B5002475
:104C800006462146204600F049F900F08BF94FF422
:104C90009635304600F056F9641CAC42F9D370BD2D
:104CA00030B587B014216846FBF700FC1E48C16C84
:104CB00041F00401C164C16C01F004010591C16CB3
:104CC00041F00101C164C16C01F001010591C16CA9
:104CD00041F00201C164C06C012500F002000590A2
:104CE0004FF44870CDE9000500240394694602940E
:104CF0000E48FDF775FD280203940090CDE901549C
:104D00004FF0904469462046FDF76AFDFFF79EFF8D
:104D1000A06940F48070A06104481830016841F433
:104D20000871016007B030BD001002400004004867
:104D30000FB410B586B004460AAA68460999FBF775
:104D400089FB6946204600F011F806B010BC5DF8FA
:104D500014FB0000203AD2B2034B02EB420203EBF9
:104D6000021200F019B80000DE670008F0B50E4628
:104D70000746002540F23F1407E021463846FFF77A
:104D8000E9FF103C6D1CA4B2761C3278002A01D0D9
:104D9000142DF2D3F0BD00002DE9F04791468A466C
:104DA0000026044600F0BAF8DFF84080012700BF73
:104DB00000F0F8F85FF0000539F8160007FA05F181
:104DC0000842404601D1408800E0008800F0BAF86F
:104DD0006D1C102DF0D3641CE4B25146204600F047
:104DE0009DF8761C182EE3D3BDE8F087380000202C
:104DF00010B5FFF755FF002000F048F8084CA080E0
:104E0000A088A0F50241303906D000F076FC0020E1
:104E100000F03CF8A08010BD00F0E6FBF7E70000D2
:104E2000380000200B4808B5007801280DD10AA1F0
:104E30001820FFF77DFF07481C3041890091038946
:104E4000C2880BA14820FFF773FFBDE8084000F0BF
:104E50007BBB000010000020202020202020207498
:104E6000696D6520202020202020202020000000C7
:104E70002020253032643A253032643A25303264BD
:104E800020202020202020202020200070B51D4937
:104E90000A6842F400720A600A6842F480720A608A
:104EA000184C103C226842F020022260164A106022
:104EB000086840F02000086000BF00BF00BF206805
:104EC00040F020002060206840F480702060FFF7F0
:104ED000A7FE4FF09041886A40F48070886200BF5E
:104EE00000BF00BF0848001F006885B2886940F411
:104EF00080708861FFF7AAFE206840F4007020608F
:104F0000284670BD280400481408004801B5BDF8C3
:104F100000000149488008BD3800002010B50C464B
:104F20000146202000F06EF82146BDE81040212007
:104F300000F068B801B5BDF800000149088008BD5F
:104F40003800002030B5154B1C68154A116841F433
:104F500000711160124910390D6845F480750D60BB
:104F60000D6845F020050D601860106840F02000C5
:104F7000106000BF00BF00BF086840F0200008605C
:104F8000086840F48070086000BF00BF00BF086878
:104F900040F4007008601C6030BD00001408004838
:104FA00028040048154A10B513681549086840F4EC
:104FB00000700860086840F480700860104810387D
:104FC000046844F020040460222414600C6844F057
:104FD00020040C6000BF00BF00BF016841F0200149
:104FE0000160016841F48071016000BF00BF00BF33
:104FF000016841F400710160136010BD140800489D
:105000002804004870B5194C2568194B1A6842F4F9
:1050100000721A601A6842F480721A60144A103AD8
:10502000166846F0200616602060186840F02000E0
:10503000186000BF00BF00BF106840F02000106083
:10504000106840F4807010602160186840F0200003
:10505000186000BF00BF00BF106840F02000106063
:10506000106840F480701060256070BD140800481E
:10507000280400487047000070B50E4E0D460446E7
:10508000012204213046FDF7D4FC4FF48070641EE9
:10509000A040094B81B20DB1002200E00122184668
:1050A000FDF7C7FC3046BDE8704000220421FDF743
:1050B000C0BC0000000C00480008004800EB810064
:1050C000006E00F0F84070478068C0F3C000704781
:1050D0008068C0F380007047042303EAD15310B501
:1050E00018444369C1F3045107248C40A3438A4008
:1050F0001343436110BD00EB8100016E21F00041BC
:1051000011430166704710B5012400212046FFF7C6
:10511000B3FF641CE4B2092CF7D310BD30B589B0DD
:1051200020216846FBF7C2F919481849002401609C
:105130004902C0E90114C46004250461C0E90545C1
:10514000047744770121016280F82440C46204633B
:1051500080F83840C46380F84040FDF785F808B116
:10516000FCF76EFE0B4800900620CDE901047F207D
:105170000594CDE9030569460548FCF763FE002860
:1051800001D0FCF75DFE09B030BD00000001005009
:10519000400000200080F03E114808B5816C41F0CD
:1051A00004018164816C01F004010091816C41F083
:1051B00001018164806C002200F001000090114622
:1051C0000B20FDF7A1FC0B20FDF790FC00221146FF
:1051D0000C20FDF799FCBDE808400C20FDF786BCCB
:1051E00000100240F0B587B014216846FBF75EF965
:1051F0002D48C16C41F00401C164C16C01F004018F
:105200000591C16C41F02001C164C16C01F0200125
:105210000591C16C41F00101C164C16C01F0010153
:105220000591C16C41F00201C164C16C01F0020141
:105230000591C16C41F00801C164C06C1B4E00F0C7
:1052400008004FF47F440590012221463046FDF7C7
:10525000F0FB174F012204213846FDF7EAFB012538
:10526000CDE9004500240294694630460394FDF7D9
:10527000B7FACDE9005469464FF090400295FDF72A
:10528000AFFA07208DE8310069460A48FDF7A8FA11
:1052900004200090CDE90154694638460394FDF797
:1052A0009FFA07B0F0BD000000100240000800485F
:1052B000000C00480004004810B586B01421684670
:1052C000FBF7F4F8214800241F490594C0E90014B5
:1052D0007D21816041F27071C0E903144FF080417B
:1052E0004461C0E906410462FEF782F908B1FCF7A7
:1052F000A7FD13208DF8000033208DF801008DF8F4
:105300000200019403940122694610480494FEF7B8
:1053100039FA08B1FCF794FD01208DF8140004203F
:105320008DF8150020208DF8160025208DF8170027
:10533000012205A90548FEF7D5F9002801D0FCF7A0
:105340007FFD06B010BD000000280040AC0000202A
:105350000C4810B50A4901604F214160002142F21A
:105360000F72C0E902120161416180218161FEF783
:10537000F4FA002803D0BDE81040FCF761BD10BD71
:1053800000480140B801002010B58EB000240794F9
:10539000089409940A940B940C941C2168460D946B
:1053A000FBF784F81E484FF0804101604F21C0E9AF
:1053B000011440F2E731C0E9031480218161FEF756
:1053C000CCFA08B1FCF73CFD4FF48050079007A9D8
:1053D0001348FEF737FB08B1FCF732FD1048FEF723
:1053E0009AFF08B1FCF72CFD0B940BA90C480D9407
:1053F000FEF764FA08B1FCF723FD6020CDE9000454
:1054000002940422694606480494FEF7F2FE08B1AD
:10541000FCF716FD0248FEF7C5FE0EB010BD0000F9
:10542000D400002010B588B00024194805940694D3
:1054300004940094019402941449039401604F2150
:10544000C0E901144FF6FF71C0E903148461FEF74F
:1054500043FC08B1FCF7F4FC049404A90C4806943E
:10546000FEF72CFA08B1FCF7EBFC0120CDE9004077
:1054700002940422694606480394FEF79BFB002829
:1054800001D0FCF7DDFC08B010BD000000040040B6
:10549000200100203EB500240F48009401940D49DE
:1054A000029401604F21C0E9011440F2E731C1606C
:1054B00080218161FEF751FA08B1FCF7C1FC00942C
:1054C000694605480294FEF7F9F9002801D0FCF777
:1054D000B7FC3EBD001400406C010020184810B518
:1054E000164901604FF416514160002181600C2281
:1054F000C160C0E904128161C161016241628162DF
:10550000FFF7E6F908B1FCF79BFC00210C48FFF718
:1055100027F808B1FCF794FC00210948FEF7FAFFD0
:1055200008B1FCF78DFC0648FEF7D3FF002803D036
:10553000BDE81040FCF784BC10BD000000380140FD
:1055400004020020FEE7000000B587B00022694693
:105550000E48FEF723F8002205A90C48FDF7FCFFD2
:105560000B489DF8171001809DF8151041809DF89B
:10557000161081809DF80010C1809DF801100181F6
:105580009DF80210418107B000BD0000AC00002072
:105590002C00002000B5114887B0002201788DF85A
:1055A000001041788DF8011080788DF802000B48CA
:1055B000C01C01788DF8171041788DF8151080788F
:1055C0008DF8160069460648FEF7DCF8002205A9AA
:1055D0000348FEF787F807B000BD00001200002066
:1055E000AC000020FEE7704730B501210020FFF736
:1055F00009FD4FF47A70FCF715FC00210120FFF73C
:1056000001FD41F290711020FFF7FCFC4FF41C519A
:105610006020FFF7F7FC01216120FFF7F3FC022176
:105620004620FFF7EFFC48F210011320FFF7EAFCD9
:1056300048F2FE011220FFF7E5FC4FF4A0610220C2
:10564000FFF7E0FC41F230010320FFF7DBFC40F202
:10565000033421463020FFF7D5FC21463120FFF7E7
:10566000D1FC21463220FFF7CDFCE51E2946332030
:10567000FFF7C8FC03213420FFF7C4FC2146352086
:10568000FFF7C0FC14213620FFF7BCFC2146372071
:10569000FFF7B8FC21463820FFF7B4FC214639203B
:1056A000FFF7B0FC29463A20FFF7ACFC03213B2072
:1056B000FFF7A8FC21463C20FFF7A4FC4FF4A051C3
:1056C0003D20FFF79FFC4FF400719220FFF79AFCFA
:1056D00021469320FFF796FC40F60D019020FFF73E
:1056E00091FC41F218010320FFF78CFCBDE830402B
:1056F00040F273110720FFF785BC10B543F2080193
:10570000E320FFF77FFC1221E720FFF77BFC41F24B
:105710003121EF20FFF776FC00210120FFF772FC1A
:105720004FF4E0610220FFF76DFC41F230010320ED
:10573000FFF768FC00210420FFF764FC40F207211A
:105740000820FFF75FFC00210920FFF75BFC002128
:105750000A20FFF757FC00210C20FFF753FC002123
:105760000D20FFF74FFC00210F20FFF74BFC00211D
:105770001020FFF747FC07211120FFF743FC002111
:105780001220FFF73FFC00211320FFF73BFCC8204D
:10579000FDF714F841F290611020FFF733FC40F25E
:1057A00027211120FFF72EFC3220FDF707F81D21DD
:1057B0001220FFF727FC3220FDF700F84FF40061BC
:1057C0001320FFF71FFC14212920FFF71BFC0B21DE
:1057D0002B20FFF717FC3220FCF7F0FF00212020E0
:1057E000FFF710FC00212120FFF70CFC07213020DF
:1057F000FFF708FC40F207713120FFF703FC062198
:105800003220FFF7FFFB40F204713520FFF7FAFB6F
:1058100041F604713620FFF7F5FB04213720FFF72E
:10582000F1FB00213820FFF7EDFB40F20671392033
:10583000FFF7E8FB40F201713C20FFF7E3FB0F218B
:105840003D20FFF7DFFB00215020FFF7DBFBEF21BE
:105850005120FFF7D7FB00215220FFF7D3FB40F286
:105860003F115320FFF7CEFB4FF41C516020FFF790
:10587000C9FB01216120FFF7C5FB00216A20FFF76A
:10588000C1FB00218020FFF7BDFB00218120FFF735
:10589000B9FB00218220FFF7B5FB00218320FFF731
:1058A000B1FB00218420FFF7ADFB00218520FFF72D
:1058B000A9FB10219020FFF7A5FB00219220FFF704
:1058C000A1FB03219320FFF79DFB4FF488719520E6
:1058D000FFF798FB00219720FFF794FB0021982009
:1058E000FFF790FB41F218010320FFF78BFBBDE8A7
:1058F000104040F273110720FFF784BB010901EB50
:10590000810100F00F0000EB4100C0B2704700229F
:10591000014602E00A39C9B2521C0A29FAD210071C
:1059200041EA1060704700002DE9F041044600682C
:105930000025C168490619D4C16841F08001C160E1
:10594000FDF77CF806464FF47A78032708E000BF9D
:10595000FDF774F8801B404502D9032584F82570B3
:105960002068C068400601D4032DF1D12846BDE867
:10597000F08170B5044600680025C16821F08001FF
:10598000C160206881694FF00306890607D420466C
:10599000FDF75EFF98B184F8256003250FE081696B
:1059A00021F0200181612046FDF752FF10B184F8FB
:1059B000256003252068816941F020018161284626
:1059C00070BD7047184A1949B2FBF0F330B40C6847
:1059D0005B1EE362B2FBF0F0DFED150AB5EEC00A24
:1059E000401EF1EE10FAC86002D29FED120A06E0E6
:1059F00010EE100A104A904201DDB0EE600A09680C
:105A0000C86A80EE201A401C00EE100AB8EE400A68
:105A100021EE000ABCEEC00A10EE100A886330BC0A
:105A200001210248FEF78EB840420F00D40000204A
:105A30000000C842000000000000C842FDF704B8A2
:105A400010B594B038216846FAF730FD14210EA83D
:105A5000FAF72CFD4FF40070FDF788F80120009054
:105A60000004019002200324CDE907041421CDE9AC
:105A70000A100C900D9009946846FDF76BFB08B175
:105A800072B6FEE70F20CDE90E04002010901190B1
:105A9000129002210EA8FDF713FA002801D072B669
:105AA000FEE714B010BD00000248016841F4700127
:105AB0000160704788ED00E00148FEF7A1BA0000E0
:105AC000B80100200148FEF79BBA0000D400002076
:105AD0000148FEF795BA0000200100200148FEF7BA
